{
  "contractName": "Biss",
  "abi": [
    {
      "constant": false,
      "inputs": [
        {
          "name": "_data",
          "type": "string"
        }
      ],
      "name": "saveData",
      "outputs": [],
      "payable": false,
      "stateMutability": "nonpayable",
      "type": "function"
    },
    {
      "constant": false,
      "inputs": [
        {
          "name": "_fileID",
          "type": "uint256"
        },
        {
          "name": "_key",
          "type": "string"
        }
      ],
      "name": "saveKey",
      "outputs": [],
      "payable": false,
      "stateMutability": "nonpayable",
      "type": "function"
    },
    {
      "constant": false,
      "inputs": [
        {
          "name": "_fileID",
          "type": "uint256"
        },
        {
          "name": "_hash",
          "type": "string"
        }
      ],
      "name": "saveHash",
      "outputs": [],
      "payable": false,
      "stateMutability": "nonpayable",
      "type": "function"
    },
    {
      "constant": true,
      "inputs": [
        {
          "name": "_fileID",
          "type": "uint256"
        },
        {
          "name": "_hash",
          "type": "string"
        }
      ],
      "name": "verifyHash",
      "outputs": [
        {
          "name": "",
          "type": "bool"
        }
      ],
      "payable": false,
      "stateMutability": "view",
      "type": "function"
    }
  ],
  "bytecode": "0x608060405234801561001057600080fd5b5061057e806100206000396000f300608060405260043610610062576000357c0100000000000000000000000000000000000000000000000000000000900463ffffffff1680631bc274161461006757806375c6e781146100da578063c46a93d214610165578063ecd0c262146101ce575b600080fd5b34801561007357600080fd5b506100d860048036038101908080359060200190929190803590602001908201803590602001908080601f0160208091040260200160405190810160405280939291908181526020018383808284378201915050505050509192919290505050610241565b005b3480156100e657600080fd5b5061014b60048036038101908080359060200190929190803590602001908201803590602001908080601f0160208091040260200160405190810160405280939291908181526020018383808284378201915050505050509192919290505050610270565b604051808215151515815260200191505060405180910390f35b34801561017157600080fd5b506101cc600480360381019080803590602001908201803590602001908080601f016020809104026020016040519081016040528093929190818152602001838380828437820191505050505050919291929050505061043c565b005b3480156101da57600080fd5b5061023f60048036038101908080359060200190929190803590602001908201803590602001908080601f016020809104026020016040519081016040528093929190818152602001838380828437820191505050505050919291929050505061047e565b005b8060016000848152602001908152602001600020600001908051906020019061026b9291906104ad565b505050565b6000816040516020018082805190602001908083835b6020831015156102ab5780518252602082019150602081019050602083039250610286565b6001836020036101000a0380198251168184511680821785525050505050509050019150506040516020818303038152906040526040518082805190602001908083835b60208310151561031457805182526020820191506020810190506020830392506102ef565b6001836020036101000a0380198251168184511680821785525050505050509050019150506040518091039020600019166001600085815260200190815260200160002060010160405160200180828054600181600116156101000203166002900480156103b95780601f106103975761010080835404028352918201916103b9565b820191906000526020600020905b8154815290600101906020018083116103a5575b50509150506040516020818303038152906040526040518082805190602001908083835b60208310151561040257805182526020820191506020810190506020830392506103dd565b6001836020036101000a03801982511681845116808217855250505050505090500191505060405180910390206000191614905092915050565b60008190806001815401808255809150509060018203906000526020600020016000909192909190915090805190602001906104799291906104ad565b505050565b806001600084815260200190815260200160002060010190805190602001906104a89291906104ad565b505050565b828054600181600116156101000203166002900490600052602060002090601f016020900481019282601f106104ee57805160ff191683800117855561051c565b8280016001018555821561051c579182015b8281111561051b578251825591602001919060010190610500565b5b509050610529919061052d565b5090565b61054f91905b8082111561054b576000816000905550600101610533565b5090565b905600a165627a7a72305820c2885943d601a70993715195ada596643052f99a5953ae315e6ff02f650f79d30029",
  "source": "pragma solidity ^0.4.23;\n\ncontract Biss {\n\n    struct Firmware {\n        string key;\n        string hash;\n    }\n\n    // 데이터 전송에 사용\n    string[] dataStorage;\n\n    function saveData(string _data) public { // data를 저장\n        dataStorage.push(_data);\n    }\n\n    // 펌웨어 업데이트 관련\n    mapping (uint => Firmware) firmwares; // fileid => Firmware\n\n    function saveKey(uint _fileID, string _key) public { // fileID의 펌웨어에 key를 저장\n        firmwares[_fileID].key = _key;\n    }\n\n    function saveHash(uint _fileID, string _hash) public { // fileID의 펌웨어에 hash(펌웨어 해시)를 저장\n        firmwares[_fileID].hash = _hash;\n    }\n\n    function verifyHash(uint _fileID, string _hash) public view returns (bool) { // 해당 fileID의 해시가 _hash인지 확인\n        return (keccak256(abi.encodePacked(firmwares[_fileID].hash)) == keccak256(abi.encodePacked(_hash)));\n    }\n\n}\n",
  "sourcePath": "/Users/junhoyeo/Desktop/BISS-Blockchain/contracts/Biss.sol",
  "compiler": {
    "name": "solc",
    "version": "0.4.24+commit.e67f0147.Emscripten.clang"
  },
  "schemaVersion": "2.0.1",
  "updatedAt": "2018-11-20T12:20:57.186Z"
}