{
  "contractName": "Biss",
  "abi": [
    {
      "constant": false,
      "inputs": [
        {
          "name": "_message",
          "type": "string"
        }
      ],
      "name": "saveData",
      "outputs": [],
      "payable": false,
      "stateMutability": "nonpayable",
      "type": "function"
    },
    {
      "constant": true,
      "inputs": [
        {
          "name": "_sender",
          "type": "address"
        }
      ],
      "name": "loadData",
      "outputs": [
        {
          "name": "",
          "type": "string"
        }
      ],
      "payable": false,
      "stateMutability": "view",
      "type": "function"
    },
    {
      "constant": false,
      "inputs": [
        {
          "name": "_fileID",
          "type": "uint256"
        },
        {
          "name": "_key",
          "type": "string"
        }
      ],
      "name": "saveKey",
      "outputs": [],
      "payable": false,
      "stateMutability": "nonpayable",
      "type": "function"
    },
    {
      "constant": false,
      "inputs": [
        {
          "name": "_fileID",
          "type": "uint256"
        },
        {
          "name": "_hash",
          "type": "string"
        }
      ],
      "name": "saveHash",
      "outputs": [],
      "payable": false,
      "stateMutability": "nonpayable",
      "type": "function"
    },
    {
      "constant": true,
      "inputs": [
        {
          "name": "_fileID",
          "type": "uint256"
        },
        {
          "name": "_hash",
          "type": "string"
        }
      ],
      "name": "verifyHash",
      "outputs": [
        {
          "name": "",
          "type": "bool"
        }
      ],
      "payable": false,
      "stateMutability": "view",
      "type": "function"
    }
  ],
  "bytecode": "0x608060405234801561001057600080fd5b50610739806100206000396000f30060806040526004361061006d576000357c0100000000000000000000000000000000000000000000000000000000900463ffffffff168063113d2baf146100725780631bc274161461012e57806375c6e781146101a1578063c46a93d21461022c578063ecd0c26214610295575b600080fd5b34801561007e57600080fd5b506100b3600480360381019080803573ffffffffffffffffffffffffffffffffffffffff169060200190929190505050610308565b6040518080602001828103825283818151815260200191508051906020019080838360005b838110156100f35780820151818401526020810190506100d8565b50505050905090810190601f1680156101205780820380516001836020036101000a031916815260200191505b509250505060405180910390f35b34801561013a57600080fd5b5061019f60048036038101908080359060200190929190803590602001908201803590602001908080601f01602080910402602001604051908101604052809392919081815260200183838082843782019150505050505091929192905050506103e8565b005b3480156101ad57600080fd5b5061021260048036038101908080359060200190929190803590602001908201803590602001908080601f0160208091040260200160405190810160405280939291908181526020018383808284378201915050505050509192919290505050610417565b604051808215151515815260200191505060405180910390f35b34801561023857600080fd5b50610293600480360381019080803590602001908201803590602001908080601f01602080910402602001604051908101604052809392919081815260200183838082843782019150505050505091929192905050506105e3565b005b3480156102a157600080fd5b5061030660048036038101908080359060200190929190803590602001908201803590602001908080601f0160208091040260200160405190810160405280939291908181526020018383808284378201915050505050509192919290505050610639565b005b60606000808373ffffffffffffffffffffffffffffffffffffffff1673ffffffffffffffffffffffffffffffffffffffff1681526020019081526020016000208054600181600116156101000203166002900480601f0160208091040260200160405190810160405280929190818152602001828054600181600116156101000203166002900480156103dc5780601f106103b1576101008083540402835291602001916103dc565b820191906000526020600020905b8154815290600101906020018083116103bf57829003601f168201915b50505050509050919050565b80600160008481526020019081526020016000206000019080519060200190610412929190610668565b505050565b6000816040516020018082805190602001908083835b602083101515610452578051825260208201915060208101905060208303925061042d565b6001836020036101000a0380198251168184511680821785525050505050509050019150506040516020818303038152906040526040518082805190602001908083835b6020831015156104bb5780518252602082019150602081019050602083039250610496565b6001836020036101000a0380198251168184511680821785525050505050509050019150506040518091039020600019166001600085815260200190815260200160002060010160405160200180828054600181600116156101000203166002900480156105605780601f1061053e576101008083540402835291820191610560565b820191906000526020600020905b81548152906001019060200180831161054c575b50509150506040516020818303038152906040526040518082805190602001908083835b6020831015156105a95780518252602082019150602081019050602083039250610584565b6001836020036101000a03801982511681845116808217855250505050505090500191505060405180910390206000191614905092915050565b806000803373ffffffffffffffffffffffffffffffffffffffff1673ffffffffffffffffffffffffffffffffffffffff1681526020019081526020016000209080519060200190610635929190610668565b5050565b80600160008481526020019081526020016000206001019080519060200190610663929190610668565b505050565b828054600181600116156101000203166002900490600052602060002090601f016020900481019282601f106106a957805160ff19168380011785556106d7565b828001600101855582156106d7579182015b828111156106d65782518255916020019190600101906106bb565b5b5090506106e491906106e8565b5090565b61070a91905b808211156107065760008160009055506001016106ee565b5090565b905600a165627a7a72305820961b394b2371a6f157b1a6e446b3a74d8a7067729f597036123dc000e0775dde0029",
  "source": "pragma solidity ^0.4.23;\n\ncontract Biss {\n\n    struct Firmware {\n        string key;\n        string hash;\n    }\n\n    mapping (address => string) dataStorage; // msg.sender => data string\n    mapping (uint => Firmware) firmwares; // fileid => Firmware\n\n    function saveData(string _message) public { // 디바이스에서 message를 일시적으로 저장\n        dataStorage[msg.sender] = _message;\n    }\n\n    function loadData(address _sender) public view returns (string) { // 수신할 디바이스의 wallet\n        return dataStorage[_sender];\n    }\n\n    function saveKey(uint _fileID, string _key) public { // fileID의 펌웨어에 key를 저장\n        firmwares[_fileID].key = _key;\n    }\n\n    function saveHash(uint _fileID, string _hash) public { // fileID의 펌웨어에 hash(펌웨어 해시)를 저장\n        firmwares[_fileID].hash = _hash;\n    }\n\n    function verifyHash(uint _fileID, string _hash) public view returns (bool) { // 해당 fileID의 해시가 _hash인지 확인\n        return (keccak256(abi.encodePacked(firmwares[_fileID].hash)) == keccak256(abi.encodePacked(_hash)));\n    }\n\n}\n",
  "sourcePath": "/Users/junhoyeo/Desktop/BISS-Blockchain/contracts/Biss.sol",
  "compiler": {
    "name": "solc",
    "version": "0.4.24+commit.e67f0147.Emscripten.clang"
  },
  "schemaVersion": "2.0.1",
  "updatedAt": "2018-11-20T11:48:09.001Z"
}