{
  "contractName": "Biss",
  "abi": [
    {
      "constant": false,
      "inputs": [
        {
          "name": "_fileID",
          "type": "uint256"
        },
        {
          "name": "_key",
          "type": "string"
        }
      ],
      "name": "saveKey",
      "outputs": [],
      "payable": false,
      "stateMutability": "nonpayable",
      "type": "function"
    },
    {
      "constant": false,
      "inputs": [
        {
          "name": "_fileID",
          "type": "uint256"
        },
        {
          "name": "_hash",
          "type": "string"
        }
      ],
      "name": "saveHash",
      "outputs": [],
      "payable": false,
      "stateMutability": "nonpayable",
      "type": "function"
    },
    {
      "constant": true,
      "inputs": [
        {
          "name": "_fileID",
          "type": "uint256"
        }
      ],
      "name": "loadKey",
      "outputs": [
        {
          "name": "_key",
          "type": "string"
        }
      ],
      "payable": false,
      "stateMutability": "view",
      "type": "function"
    },
    {
      "constant": true,
      "inputs": [
        {
          "name": "_fileID",
          "type": "uint256"
        },
        {
          "name": "_hash",
          "type": "string"
        }
      ],
      "name": "verifyHash",
      "outputs": [
        {
          "name": "",
          "type": "bool"
        }
      ],
      "payable": false,
      "stateMutability": "view",
      "type": "function"
    }
  ],
  "bytecode": "0x608060405234801561001057600080fd5b5061062d806100206000396000f300608060405260043610610062576000357c0100000000000000000000000000000000000000000000000000000000900463ffffffff1680631bc274161461006757806375c6e781146100da578063ecd0c26214610165578063ff889865146101d8575b600080fd5b34801561007357600080fd5b506100d860048036038101908080359060200190929190803590602001908201803590602001908080601f016020809104026020016040519081016040528093929190818152602001838380828437820191505050505050919291929050505061027e565b005b3480156100e657600080fd5b5061014b60048036038101908080359060200190929190803590602001908201803590602001908080601f01602080910402602001604051908101604052809392919081815260200183838082843782019150505050505091929192905050506102ac565b604051808215151515815260200191505060405180910390f35b34801561017157600080fd5b506101d660048036038101908080359060200190929190803590602001908201803590602001908080601f0160208091040260200160405190810160405280939291908181526020018383808284378201915050505050509192919290505050610477565b005b3480156101e457600080fd5b50610203600480360381019080803590602001909291905050506104a5565b6040518080602001828103825283818151815260200191508051906020019080838360005b83811015610243578082015181840152602081019050610228565b50505050905090810190601f1680156102705780820380516001836020036101000a031916815260200191505b509250505060405180910390f35b8060008084815260200190815260200160002060000190805190602001906102a792919061055c565b505050565b6000816040516020018082805190602001908083835b6020831015156102e757805182526020820191506020810190506020830392506102c2565b6001836020036101000a0380198251168184511680821785525050505050509050019150506040516020818303038152906040526040518082805190602001908083835b602083101515610350578051825260208201915060208101905060208303925061032b565b6001836020036101000a03801982511681845116808217855250505050505090500191505060405180910390206000191660008085815260200190815260200160002060010160405160200180828054600181600116156101000203166002900480156103f45780601f106103d25761010080835404028352918201916103f4565b820191906000526020600020905b8154815290600101906020018083116103e0575b50509150506040516020818303038152906040526040518082805190602001908083835b60208310151561043d5780518252602082019150602081019050602083039250610418565b6001836020036101000a03801982511681845116808217855250505050505090500191505060405180910390206000191614905092915050565b8060008084815260200190815260200160002060010190805190602001906104a092919061055c565b505050565b60606000808381526020019081526020016000206000018054600181600116156101000203166002900480601f0160208091040260200160405190810160405280929190818152602001828054600181600116156101000203166002900480156105505780601f1061052557610100808354040283529160200191610550565b820191906000526020600020905b81548152906001019060200180831161053357829003601f168201915b50505050509050919050565b828054600181600116156101000203166002900490600052602060002090601f016020900481019282601f1061059d57805160ff19168380011785556105cb565b828001600101855582156105cb579182015b828111156105ca5782518255916020019190600101906105af565b5b5090506105d891906105dc565b5090565b6105fe91905b808211156105fa5760008160009055506001016105e2565b5090565b905600a165627a7a723058200e9f61ecf4af346aa68251500ce30f36f53d694f94b5f7a88a01fe8efe2098560029",
  "source": "pragma solidity ^0.4.23;\n\ncontract Biss {\n\n    struct Firmware {\n        string key;\n        string hash;\n    }\n\n    mapping (uint => Firmware) firmwares; // fileid => Firmware\n\n    function saveKey(uint _fileID, string _key) public { // fileID의 펌웨어에 key를 저장\n        firmwares[_fileID].key = _key;\n    }\n\n    function saveHash(uint _fileID, string _hash) public { // fileID의 펌웨어에 hash(펌웨어 해시)를 저장\n        firmwares[_fileID].hash = _hash;\n    }\n\n    function loadKey(uint _fileID) public view returns (string _key) { // fileID로 해당 펌웨어의 key를 로드\n        _key = firmwares[_fileID].key;\n    }\n\n    function verifyHash(uint _fileID, string _hash) public view returns (bool) { // 해당 fileID의 해시가 _hash인지 확인\n        return (keccak256(abi.encodePacked(firmwares[_fileID].hash)) == keccak256(abi.encodePacked(_hash)));\n    }\n\n}\n",
  "sourcePath": "/Users/junhoyeo/Desktop/BISS-Blockchain/contracts/Biss.sol",
  "compiler": {
    "name": "solc",
    "version": "0.4.24+commit.e67f0147.Emscripten.clang"
  },
  "schemaVersion": "2.0.1",
  "updatedAt": "2018-11-19T15:21:34.210Z"
}